{
  "contractName": "PatientsList",
  "abi": [
    {
      "inputs": [],
      "payable": false,
      "stateMutability": "nonpayable",
      "type": "constructor"
    },
    {
      "constant": true,
      "inputs": [],
      "name": "patientCount",
      "outputs": [
        {
          "internalType": "uint256",
          "name": "",
          "type": "uint256"
        }
      ],
      "payable": false,
      "stateMutability": "view",
      "type": "function"
    },
    {
      "constant": true,
      "inputs": [
        {
          "internalType": "uint256",
          "name": "",
          "type": "uint256"
        }
      ],
      "name": "patients",
      "outputs": [
        {
          "internalType": "uint256",
          "name": "id",
          "type": "uint256"
        },
        {
          "internalType": "string",
          "name": "name",
          "type": "string"
        },
        {
          "internalType": "uint8",
          "name": "age",
          "type": "uint8"
        },
        {
          "internalType": "bool",
          "name": "isDischarged",
          "type": "bool"
        }
      ],
      "payable": false,
      "stateMutability": "view",
      "type": "function"
    },
    {
      "constant": false,
      "inputs": [
        {
          "internalType": "string",
          "name": "name",
          "type": "string"
        },
        {
          "internalType": "uint8",
          "name": "age",
          "type": "uint8"
        }
      ],
      "name": "createPatient",
      "outputs": [],
      "payable": false,
      "stateMutability": "nonpayable",
      "type": "function"
    }
  ],
  "bytecode": "0x60806040526000805534801561001457600080fd5b5061005b6040518060400160405280600c81526020017f486172727920506f747465720000000000000000000000000000000000000000815250601e61006060201b60201c565b6101c2565b6000808154809291906001019190505550604051806080016040528060005481526020018381526020018260ff1681526020016000151581525060016000805481526020019081526020016000206000820151816000015560208201518160010190805190602001906100d492919061011d565b5060408201518160020160006101000a81548160ff021916908360ff16021790555060608201518160020160016101000a81548160ff0219169083151502179055509050505050565b828054600181600116156101000203166002900490600052602060002090601f016020900481019282601f1061015e57805160ff191683800117855561018c565b8280016001018555821561018c579182015b8281111561018b578251825591602001919060010190610170565b5b509050610199919061019d565b5090565b6101bf91905b808211156101bb5760008160009055506001016101a3565b5090565b90565b610471806101d16000396000f3fe608060405234801561001057600080fd5b50600436106100415760003560e01c806393119a8314610046578063a0303c411461010c578063fcaceff41461012a575b600080fd5b6100726004803603602081101561005c57600080fd5b81019080803590602001909291905050506101f2565b60405180858152602001806020018460ff1660ff16815260200183151515158152602001828103825285818151815260200191508051906020019080838360005b838110156100ce5780820151818401526020810190506100b3565b50505050905090810190601f1680156100fb5780820380516001836020036101000a031916815260200191505b509550505050505060405180910390f35b6101146102d4565b6040518082815260200191505060405180910390f35b6101f06004803603604081101561014057600080fd5b810190808035906020019064010000000081111561015d57600080fd5b82018360208201111561016f57600080fd5b8035906020019184600183028401116401000000008311171561019157600080fd5b91908080601f016020809104026020016040519081016040528093929190818152602001838380828437600081840152601f19601f820116905080830192505050505050509192919290803560ff1690602001909291905050506102da565b005b6001602052806000526040600020600091509050806000015490806001018054600181600116156101000203166002900480601f0160208091040260200160405190810160405280929190818152602001828054600181600116156101000203166002900480156102a45780601f10610279576101008083540402835291602001916102a4565b820191906000526020600020905b81548152906001019060200180831161028757829003601f168201915b5050505050908060020160009054906101000a900460ff16908060020160019054906101000a900460ff16905084565b60005481565b6000808154809291906001019190505550604051806080016040528060005481526020018381526020018260ff16815260200160001515815250600160008054815260200190815260200160002060008201518160000155602082015181600101908051906020019061034e929190610397565b5060408201518160020160006101000a81548160ff021916908360ff16021790555060608201518160020160016101000a81548160ff0219169083151502179055509050505050565b828054600181600116156101000203166002900490600052602060002090601f016020900481019282601f106103d857805160ff1916838001178555610406565b82800160010185558215610406579182015b828111156104055782518255916020019190600101906103ea565b5b5090506104139190610417565b5090565b61043991905b8082111561043557600081600090555060010161041d565b5090565b9056fea265627a7a723158205333ec2d501da60d9fb3ffdbb5cc347c1bb061e30efa7580ba7e703169a5a22e64736f6c63430005100032",
  "source": "pragma solidity >=0.4.21 <0.7.0;\r\n\r\ncontract PatientsList {\r\n    uint256 public patientCount = 0;\r\n\r\n    constructor() public {\r\n        createPatient(\"Harry Potter\", 30);\r\n    }\r\n\r\n    struct Patient {\r\n        uint256 id;\r\n        string name;\r\n        uint8 age;\r\n        bool isDischarged;\r\n    }\r\n\r\n    mapping(uint256 => Patient) public patients;\r\n\r\n    function createPatient(string memory name, uint8 age) public {\r\n        patientCount++;\r\n        patients[patientCount] = Patient(patientCount, name, age, false);\r\n    }\r\n}\r\n",
  "sourcePath": "C:\\xampp\\htdocs\\patient_management\\contracts\\PatientsList.sol",
  "compiler": {
    "name": "solc",
    "version": "0.5.16+commit.9c3226ce.Emscripten.clang"
  },
  "schemaVersion": "3.0.23",
  "updatedAt": "2020-03-30T08:32:50.154Z",
  "networkType": "ethereum",
  "devdoc": {
    "methods": {}
  },
  "userdoc": {
    "methods": {}
  }
}